{
  "contractName": "Faucet",
  "abi": [
    {
      "inputs": [],
      "stateMutability": "nonpayable",
      "type": "constructor"
    },
    {
      "inputs": [
        {
          "internalType": "address",
          "name": "",
          "type": "address"
        }
      ],
      "name": "funders",
      "outputs": [
        {
          "internalType": "bool",
          "name": "",
          "type": "bool"
        }
      ],
      "stateMutability": "view",
      "type": "function",
      "constant": true
    },
    {
      "inputs": [
        {
          "internalType": "uint256",
          "name": "",
          "type": "uint256"
        }
      ],
      "name": "lutFunders",
      "outputs": [
        {
          "internalType": "address",
          "name": "",
          "type": "address"
        }
      ],
      "stateMutability": "view",
      "type": "function",
      "constant": true
    },
    {
      "inputs": [],
      "name": "numOfFunders",
      "outputs": [
        {
          "internalType": "uint256",
          "name": "",
          "type": "uint256"
        }
      ],
      "stateMutability": "view",
      "type": "function",
      "constant": true
    },
    {
      "inputs": [],
      "name": "owner",
      "outputs": [
        {
          "internalType": "address",
          "name": "",
          "type": "address"
        }
      ],
      "stateMutability": "view",
      "type": "function",
      "constant": true
    },
    {
      "stateMutability": "payable",
      "type": "receive",
      "payable": true
    },
    {
      "inputs": [],
      "name": "test1",
      "outputs": [],
      "stateMutability": "nonpayable",
      "type": "function"
    },
    {
      "inputs": [],
      "name": "addFunds",
      "outputs": [],
      "stateMutability": "payable",
      "type": "function",
      "payable": true
    },
    {
      "inputs": [
        {
          "internalType": "uint256",
          "name": "withdrawAmount",
          "type": "uint256"
        }
      ],
      "name": "withdraw",
      "outputs": [],
      "stateMutability": "nonpayable",
      "type": "function"
    },
    {
      "inputs": [],
      "name": "getAllFunders",
      "outputs": [
        {
          "internalType": "address[]",
          "name": "",
          "type": "address[]"
        }
      ],
      "stateMutability": "view",
      "type": "function",
      "constant": true
    },
    {
      "inputs": [
        {
          "internalType": "uint8",
          "name": "index",
          "type": "uint8"
        }
      ],
      "name": "getFunderAtIndex",
      "outputs": [
        {
          "internalType": "address",
          "name": "",
          "type": "address"
        }
      ],
      "stateMutability": "view",
      "type": "function",
      "constant": true
    }
  ],
  "bytecode": "0x608060405234801561001057600080fd5b50336000806101000a81548173ffffffffffffffffffffffffffffffffffffffff021916908373ffffffffffffffffffffffffffffffffffffffff160217905550610b1a806100606000396000f3fe60806040526004361061008a5760003560e01c80636b59084d116100595780636b59084d146101765780636fbbb55d1461018d5780638da5cb5b146101b8578063a26759cb146101e3578063af7f2c9b146101ed57610091565b8063031b3677146100965780630a93cf33146100d35780631f8947ea146101105780632e1a7d4d1461014d57610091565b3661009157005b600080fd5b3480156100a257600080fd5b506100bd60048036038101906100b89190610679565b610218565b6040516100ca91906106c1565b60405180910390f35b3480156100df57600080fd5b506100fa60048036038101906100f59190610715565b610238565b6040516101079190610751565b60405180910390f35b34801561011c57600080fd5b50610137600480360381019061013291906107a2565b610278565b6040516101449190610751565b60405180910390f35b34801561015957600080fd5b50610174600480360381019061016f91906107a2565b6102ab565b005b34801561018257600080fd5b5061018b610342565b005b34801561019957600080fd5b506101a26103d2565b6040516101af919061088d565b60405180910390f35b3480156101c457600080fd5b506101cd6104cc565b6040516101da9190610751565b60405180910390f35b6101eb6104f0565b005b3480156101f957600080fd5b50610202610610565b60405161020f91906108be565b60405180910390f35b60026020528060005260406000206000915054906101000a900460ff1681565b6000600360008360ff16815260200190815260200160002060009054906101000a900473ffffffffffffffffffffffffffffffffffffffff169050919050565b60036020528060005260406000206000915054906101000a900473ffffffffffffffffffffffffffffffffffffffff1681565b80670de0b6b3a76400008111156102f7576040517f08c379a00000000000000000000000000000000000000000000000000000000081526004016102ee9061095c565b60405180910390fd5b3373ffffffffffffffffffffffffffffffffffffffff166108fc839081150290604051600060405180830381858888f1935050505015801561033d573d6000803e3d6000fd5b505050565b60008054906101000a900473ffffffffffffffffffffffffffffffffffffffff1673ffffffffffffffffffffffffffffffffffffffff163373ffffffffffffffffffffffffffffffffffffffff16146103d0576040517f08c379a00000000000000000000000000000000000000000000000000000000081526004016103c7906109ee565b60405180910390fd5b565b6060600060015467ffffffffffffffff8111156103f2576103f1610a0e565b5b6040519080825280602002602001820160405280156104205781602001602082028036833780820191505090505b50905060005b6001548110156104c4576003600082815260200190815260200160002060009054906101000a900473ffffffffffffffffffffffffffffffffffffffff1682828151811061047757610476610a3d565b5b602002602001019073ffffffffffffffffffffffffffffffffffffffff16908173ffffffffffffffffffffffffffffffffffffffff168152505080806104bc90610a9b565b915050610426565b508091505090565b60008054906101000a900473ffffffffffffffffffffffffffffffffffffffff1681565b6000339050600260008273ffffffffffffffffffffffffffffffffffffffff1673ffffffffffffffffffffffffffffffffffffffff16815260200190815260200160002060009054906101000a900460ff1661060d5760006001600081548092919061055b90610a9b565b9190505590506001600260008473ffffffffffffffffffffffffffffffffffffffff1673ffffffffffffffffffffffffffffffffffffffff16815260200190815260200160002060006101000a81548160ff021916908315150217905550816003600083815260200190815260200160002060006101000a81548173ffffffffffffffffffffffffffffffffffffffff021916908373ffffffffffffffffffffffffffffffffffffffff160217905550505b50565b60015481565b600080fd5b600073ffffffffffffffffffffffffffffffffffffffff82169050919050565b60006106468261061b565b9050919050565b6106568161063b565b811461066157600080fd5b50565b6000813590506106738161064d565b92915050565b60006020828403121561068f5761068e610616565b5b600061069d84828501610664565b91505092915050565b60008115159050919050565b6106bb816106a6565b82525050565b60006020820190506106d660008301846106b2565b92915050565b600060ff82169050919050565b6106f2816106dc565b81146106fd57600080fd5b50565b60008135905061070f816106e9565b92915050565b60006020828403121561072b5761072a610616565b5b600061073984828501610700565b91505092915050565b61074b8161063b565b82525050565b60006020820190506107666000830184610742565b92915050565b6000819050919050565b61077f8161076c565b811461078a57600080fd5b50565b60008135905061079c81610776565b92915050565b6000602082840312156107b8576107b7610616565b5b60006107c68482850161078d565b91505092915050565b600081519050919050565b600082825260208201905092915050565b6000819050602082019050919050565b6108048161063b565b82525050565b600061081683836107fb565b60208301905092915050565b6000602082019050919050565b600061083a826107cf565b61084481856107da565b935061084f836107eb565b8060005b83811015610880578151610867888261080a565b975061087283610822565b925050600181019050610853565b5085935050505092915050565b600060208201905081810360008301526108a7818461082f565b905092915050565b6108b88161076c565b82525050565b60006020820190506108d360008301846108af565b92915050565b600082825260208201905092915050565b7f43616e6e6f74207769746864726177206d6f7265207468616e2031206574686560008201527f7200000000000000000000000000000000000000000000000000000000000000602082015250565b60006109466021836108d9565b9150610951826108ea565b604082019050919050565b6000602082019050818103600083015261097581610939565b9050919050565b7f4f6e6c79206f776e65722063616e2063616c6c20746869732066756e6374696f60008201527f6e00000000000000000000000000000000000000000000000000000000000000602082015250565b60006109d86021836108d9565b91506109e38261097c565b604082019050919050565b60006020820190508181036000830152610a07816109cb565b9050919050565b7f4e487b7100000000000000000000000000000000000000000000000000000000600052604160045260246000fd5b7f4e487b7100000000000000000000000000000000000000000000000000000000600052603260045260246000fd5b7f4e487b7100000000000000000000000000000000000000000000000000000000600052601160045260246000fd5b6000610aa68261076c565b91507fffffffffffffffffffffffffffffffffffffffffffffffffffffffffffffffff821415610ad957610ad8610a6c565b5b60018201905091905056fea264697066735822122034072bd6c3c14a559d6de911bbc678d63399cc200eae9166365070241b19ebda64736f6c634300080b0033",
  "immutableReferences": {},
  "source": "// SPDX-License-Identifier: MIT\r\npragma solidity >=0.4.22 <0.9.0;\r\n\r\ncontract Faucet {\r\n    address public owner;\r\n    uint256 public numOfFunders;\r\n    mapping(address => bool) public funders; //funders sin repeticion\r\n    mapping(uint256 => address) public lutFunders; //all funders\r\n\r\n    constructor() {\r\n        owner = msg.sender;\r\n    }\r\n\r\n    modifier onlyOwner() {\r\n        require(msg.sender == owner, \"Only owner can call this function\");\r\n        _;\r\n    }\r\n\r\n    modifier limitWithdraw(uint256 withdrawAmount) {\r\n        require(\r\n            withdrawAmount <= 1000000000000000000,\r\n            \"Cannot withdraw more than 1 ether\"\r\n        );\r\n        _;\r\n    }\r\n\r\n    receive() external payable {}\r\n\r\n    function test1() external onlyOwner {}\r\n\r\n    function addFunds() external payable {\r\n        address funder = msg.sender;\r\n\r\n        if (!funders[funder]) {\r\n            uint256 index = numOfFunders++;\r\n            funders[funder] = true;\r\n            lutFunders[index] = funder;\r\n        }\r\n    }\r\n\r\n    function withdraw(uint256 withdrawAmount)\r\n        external\r\n        limitWithdraw(withdrawAmount)\r\n    {\r\n        payable(msg.sender).transfer(withdrawAmount);\r\n    }\r\n\r\n    function getAllFunders() external view returns (address[] memory) {\r\n        address[] memory _funders = new address[](numOfFunders);\r\n\r\n        for (uint256 i = 0; i < numOfFunders; i++) {\r\n            _funders[i] = lutFunders[i];\r\n        }\r\n\r\n        return _funders;\r\n    }\r\n\r\n    function getFunderAtIndex(uint8 index) external view returns (address) {\r\n        return lutFunders[index];\r\n    }\r\n}\r\n\r\n// const instance = await Faucet.deployed()\r\n// instance.addFunds({from: accounts[1], value: \"2000000000000000000\"})\r\n// instance.withdraw(\"500000000000000000\", {from: accounts[1]})\r\n",
  "sourcePath": "C:\\Proyectos\\Blockchain\\01-Faucet\\contracts\\FaucetContract.sol",
  "compiler": {
    "name": "solc",
    "version": "0.8.11+commit.d7f03943.Emscripten.clang"
  },
  "schemaVersion": "3.4.4",
  "updatedAt": "2022-02-01T15:04:45.884Z",
  "networkType": "ethereum",
  "devdoc": {
    "kind": "dev",
    "methods": {},
    "version": 1
  },
  "userdoc": {
    "kind": "user",
    "methods": {},
    "version": 1
  }
}